{
  "_format": "hh3-artifact-1",
  "contractName": "NGORegistry",
  "sourceName": "contracts/NGORegistry.sol",
  "abi": [
    {
      "inputs": [
        {
          "internalType": "address",
          "name": "_selfProtocolVerifier",
          "type": "address"
        },
        {
          "internalType": "address",
          "name": "_cUSD",
          "type": "address"
        },
        {
          "internalType": "address",
          "name": "_feeCollector",
          "type": "address"
        },
        {
          "internalType": "uint256",
          "name": "_registrationFee",
          "type": "uint256"
        },
        {
          "internalType": "bool",
          "name": "_stagingMode",
          "type": "bool"
        }
      ],
      "stateMutability": "nonpayable",
      "type": "constructor"
    },
    {
      "inputs": [],
      "name": "ECDSAInvalidSignature",
      "type": "error"
    },
    {
      "inputs": [
        {
          "internalType": "uint256",
          "name": "length",
          "type": "uint256"
        }
      ],
      "name": "ECDSAInvalidSignatureLength",
      "type": "error"
    },
    {
      "inputs": [
        {
          "internalType": "bytes32",
          "name": "s",
          "type": "bytes32"
        }
      ],
      "name": "ECDSAInvalidSignatureS",
      "type": "error"
    },
    {
      "inputs": [],
      "name": "ReentrancyGuardReentrantCall",
      "type": "error"
    },
    {
      "anonymous": false,
      "inputs": [
        {
          "indexed": true,
          "internalType": "address",
          "name": "ngo",
          "type": "address"
        },
        {
          "indexed": true,
          "internalType": "address",
          "name": "donor",
          "type": "address"
        },
        {
          "indexed": false,
          "internalType": "uint256",
          "name": "amount",
          "type": "uint256"
        }
      ],
      "name": "DonationRecorded",
      "type": "event"
    },
    {
      "anonymous": false,
      "inputs": [
        {
          "indexed": false,
          "internalType": "address",
          "name": "oldCollector",
          "type": "address"
        },
        {
          "indexed": false,
          "internalType": "address",
          "name": "newCollector",
          "type": "address"
        }
      ],
      "name": "FeeCollectorUpdated",
      "type": "event"
    },
    {
      "anonymous": false,
      "inputs": [
        {
          "indexed": true,
          "internalType": "address",
          "name": "ngo",
          "type": "address"
        },
        {
          "indexed": true,
          "internalType": "address",
          "name": "challenger",
          "type": "address"
        },
        {
          "indexed": false,
          "internalType": "string",
          "name": "reason",
          "type": "string"
        },
        {
          "indexed": false,
          "internalType": "uint256",
          "name": "challengeCount",
          "type": "uint256"
        }
      ],
      "name": "NGOChallenged",
      "type": "event"
    },
    {
      "anonymous": false,
      "inputs": [
        {
          "indexed": true,
          "internalType": "address",
          "name": "ngoWallet",
          "type": "address"
        },
        {
          "indexed": false,
          "internalType": "string",
          "name": "newIpfsHash",
          "type": "string"
        }
      ],
      "name": "NGOProfileUpdated",
      "type": "event"
    },
    {
      "anonymous": false,
      "inputs": [
        {
          "indexed": true,
          "internalType": "address",
          "name": "ngoWallet",
          "type": "address"
        },
        {
          "indexed": false,
          "internalType": "string",
          "name": "founderDID",
          "type": "string"
        },
        {
          "indexed": false,
          "internalType": "string",
          "name": "country",
          "type": "string"
        },
        {
          "indexed": false,
          "internalType": "uint256",
          "name": "timestamp",
          "type": "uint256"
        }
      ],
      "name": "NGORegistered",
      "type": "event"
    },
    {
      "anonymous": false,
      "inputs": [
        {
          "indexed": true,
          "internalType": "address",
          "name": "ngo",
          "type": "address"
        },
        {
          "indexed": false,
          "internalType": "string",
          "name": "reason",
          "type": "string"
        }
      ],
      "name": "NGORevoked",
      "type": "event"
    },
    {
      "anonymous": false,
      "inputs": [
        {
          "indexed": false,
          "internalType": "uint256",
          "name": "oldFee",
          "type": "uint256"
        },
        {
          "indexed": false,
          "internalType": "uint256",
          "name": "newFee",
          "type": "uint256"
        }
      ],
      "name": "RegistrationFeeUpdated",
      "type": "event"
    },
    {
      "anonymous": false,
      "inputs": [
        {
          "indexed": false,
          "internalType": "address",
          "name": "oldVerifier",
          "type": "address"
        },
        {
          "indexed": false,
          "internalType": "address",
          "name": "newVerifier",
          "type": "address"
        }
      ],
      "name": "SelfProtocolVerifierUpdated",
      "type": "event"
    },
    {
      "anonymous": false,
      "inputs": [
        {
          "indexed": false,
          "internalType": "bool",
          "name": "oldMode",
          "type": "bool"
        },
        {
          "indexed": false,
          "internalType": "bool",
          "name": "newMode",
          "type": "bool"
        }
      ],
      "name": "StagingModeUpdated",
      "type": "event"
    },
    {
      "inputs": [],
      "name": "CHALLENGE_THRESHOLD",
      "outputs": [
        {
          "internalType": "uint256",
          "name": "",
          "type": "uint256"
        }
      ],
      "stateMutability": "view",
      "type": "function"
    },
    {
      "inputs": [],
      "name": "admin",
      "outputs": [
        {
          "internalType": "address",
          "name": "",
          "type": "address"
        }
      ],
      "stateMutability": "view",
      "type": "function"
    },
    {
      "inputs": [
        {
          "internalType": "address",
          "name": "_ngo",
          "type": "address"
        },
        {
          "internalType": "string",
          "name": "_reason",
          "type": "string"
        }
      ],
      "name": "adminRevokeNGO",
      "outputs": [],
      "stateMutability": "nonpayable",
      "type": "function"
    },
    {
      "inputs": [],
      "name": "cUSD",
      "outputs": [
        {
          "internalType": "contract IERC20",
          "name": "",
          "type": "address"
        }
      ],
      "stateMutability": "view",
      "type": "function"
    },
    {
      "inputs": [
        {
          "internalType": "address",
          "name": "",
          "type": "address"
        }
      ],
      "name": "challengeCount",
      "outputs": [
        {
          "internalType": "uint256",
          "name": "",
          "type": "uint256"
        }
      ],
      "stateMutability": "view",
      "type": "function"
    },
    {
      "inputs": [
        {
          "internalType": "address",
          "name": "_ngo",
          "type": "address"
        },
        {
          "internalType": "string",
          "name": "_reason",
          "type": "string"
        }
      ],
      "name": "challengeNGO",
      "outputs": [],
      "stateMutability": "nonpayable",
      "type": "function"
    },
    {
      "inputs": [],
      "name": "feeCollector",
      "outputs": [
        {
          "internalType": "address",
          "name": "",
          "type": "address"
        }
      ],
      "stateMutability": "view",
      "type": "function"
    },
    {
      "inputs": [],
      "name": "getAllVerifiedNGOs",
      "outputs": [
        {
          "internalType": "address[]",
          "name": "",
          "type": "address[]"
        }
      ],
      "stateMutability": "view",
      "type": "function"
    },
    {
      "inputs": [
        {
          "internalType": "address",
          "name": "_ngo",
          "type": "address"
        }
      ],
      "name": "getNGO",
      "outputs": [
        {
          "components": [
            {
              "internalType": "string",
              "name": "founderDID",
              "type": "string"
            },
            {
              "internalType": "bytes32",
              "name": "vcProofHash",
              "type": "bytes32"
            },
            {
              "internalType": "uint8",
              "name": "founderAge",
              "type": "uint8"
            },
            {
              "internalType": "string",
              "name": "founderCountry",
              "type": "string"
            },
            {
              "internalType": "address",
              "name": "ngoWallet",
              "type": "address"
            },
            {
              "internalType": "string",
              "name": "ipfsProfile",
              "type": "string"
            },
            {
              "internalType": "uint256",
              "name": "registeredAt",
              "type": "uint256"
            },
            {
              "internalType": "uint256",
              "name": "vcExpiryDate",
              "type": "uint256"
            },
            {
              "internalType": "bool",
              "name": "isActive",
              "type": "bool"
            },
            {
              "internalType": "uint256",
              "name": "totalDonationsReceived",
              "type": "uint256"
            },
            {
              "internalType": "uint256",
              "name": "donorCount",
              "type": "uint256"
            }
          ],
          "internalType": "struct NGORegistry.NGO",
          "name": "",
          "type": "tuple"
        }
      ],
      "stateMutability": "view",
      "type": "function"
    },
    {
      "inputs": [
        {
          "internalType": "string",
          "name": "_countryCode",
          "type": "string"
        }
      ],
      "name": "getNGOsByCountry",
      "outputs": [
        {
          "internalType": "address[]",
          "name": "",
          "type": "address[]"
        }
      ],
      "stateMutability": "view",
      "type": "function"
    },
    {
      "inputs": [],
      "name": "getTotalVerifiedNGOs",
      "outputs": [
        {
          "internalType": "uint256",
          "name": "",
          "type": "uint256"
        }
      ],
      "stateMutability": "view",
      "type": "function"
    },
    {
      "inputs": [
        {
          "internalType": "address",
          "name": "",
          "type": "address"
        },
        {
          "internalType": "address",
          "name": "",
          "type": "address"
        }
      ],
      "name": "hasChallenger",
      "outputs": [
        {
          "internalType": "bool",
          "name": "",
          "type": "bool"
        }
      ],
      "stateMutability": "view",
      "type": "function"
    },
    {
      "inputs": [
        {
          "internalType": "address",
          "name": "_ngo",
          "type": "address"
        }
      ],
      "name": "isVCExpired",
      "outputs": [
        {
          "internalType": "bool",
          "name": "",
          "type": "bool"
        }
      ],
      "stateMutability": "view",
      "type": "function"
    },
    {
      "inputs": [
        {
          "internalType": "address",
          "name": "_ngo",
          "type": "address"
        }
      ],
      "name": "isVerified",
      "outputs": [
        {
          "internalType": "bool",
          "name": "",
          "type": "bool"
        }
      ],
      "stateMutability": "view",
      "type": "function"
    },
    {
      "inputs": [
        {
          "internalType": "address",
          "name": "",
          "type": "address"
        }
      ],
      "name": "ngoByWallet",
      "outputs": [
        {
          "internalType": "string",
          "name": "founderDID",
          "type": "string"
        },
        {
          "internalType": "bytes32",
          "name": "vcProofHash",
          "type": "bytes32"
        },
        {
          "internalType": "uint8",
          "name": "founderAge",
          "type": "uint8"
        },
        {
          "internalType": "string",
          "name": "founderCountry",
          "type": "string"
        },
        {
          "internalType": "address",
          "name": "ngoWallet",
          "type": "address"
        },
        {
          "internalType": "string",
          "name": "ipfsProfile",
          "type": "string"
        },
        {
          "internalType": "uint256",
          "name": "registeredAt",
          "type": "uint256"
        },
        {
          "internalType": "uint256",
          "name": "vcExpiryDate",
          "type": "uint256"
        },
        {
          "internalType": "bool",
          "name": "isActive",
          "type": "bool"
        },
        {
          "internalType": "uint256",
          "name": "totalDonationsReceived",
          "type": "uint256"
        },
        {
          "internalType": "uint256",
          "name": "donorCount",
          "type": "uint256"
        }
      ],
      "stateMutability": "view",
      "type": "function"
    },
    {
      "inputs": [
        {
          "internalType": "address",
          "name": "_ngo",
          "type": "address"
        },
        {
          "internalType": "address",
          "name": "_donor",
          "type": "address"
        },
        {
          "internalType": "uint256",
          "name": "_amount",
          "type": "uint256"
        }
      ],
      "name": "recordDonation",
      "outputs": [],
      "stateMutability": "nonpayable",
      "type": "function"
    },
    {
      "inputs": [
        {
          "internalType": "string",
          "name": "_founderDID",
          "type": "string"
        },
        {
          "internalType": "bytes32",
          "name": "_vcProofHash",
          "type": "bytes32"
        },
        {
          "internalType": "bytes",
          "name": "_vcSignature",
          "type": "bytes"
        },
        {
          "internalType": "uint8",
          "name": "_founderAge",
          "type": "uint8"
        },
        {
          "internalType": "string",
          "name": "_founderCountry",
          "type": "string"
        },
        {
          "internalType": "string",
          "name": "_ipfsProfile",
          "type": "string"
        },
        {
          "internalType": "uint256",
          "name": "_vcExpiryDate",
          "type": "uint256"
        }
      ],
      "name": "registerNGO",
      "outputs": [],
      "stateMutability": "nonpayable",
      "type": "function"
    },
    {
      "inputs": [],
      "name": "registrationFee",
      "outputs": [
        {
          "internalType": "uint256",
          "name": "",
          "type": "uint256"
        }
      ],
      "stateMutability": "view",
      "type": "function"
    },
    {
      "inputs": [],
      "name": "selfProtocolVerifier",
      "outputs": [
        {
          "internalType": "address",
          "name": "",
          "type": "address"
        }
      ],
      "stateMutability": "view",
      "type": "function"
    },
    {
      "inputs": [],
      "name": "stagingMode",
      "outputs": [
        {
          "internalType": "bool",
          "name": "",
          "type": "bool"
        }
      ],
      "stateMutability": "view",
      "type": "function"
    },
    {
      "inputs": [
        {
          "internalType": "address",
          "name": "_newAdmin",
          "type": "address"
        }
      ],
      "name": "transferAdmin",
      "outputs": [],
      "stateMutability": "nonpayable",
      "type": "function"
    },
    {
      "inputs": [
        {
          "internalType": "address",
          "name": "_newCollector",
          "type": "address"
        }
      ],
      "name": "updateFeeCollector",
      "outputs": [],
      "stateMutability": "nonpayable",
      "type": "function"
    },
    {
      "inputs": [
        {
          "internalType": "string",
          "name": "_newIpfsHash",
          "type": "string"
        }
      ],
      "name": "updateProfile",
      "outputs": [],
      "stateMutability": "nonpayable",
      "type": "function"
    },
    {
      "inputs": [
        {
          "internalType": "uint256",
          "name": "_newFee",
          "type": "uint256"
        }
      ],
      "name": "updateRegistrationFee",
      "outputs": [],
      "stateMutability": "nonpayable",
      "type": "function"
    },
    {
      "inputs": [
        {
          "internalType": "address",
          "name": "_newVerifier",
          "type": "address"
        }
      ],
      "name": "updateSelfProtocolVerifier",
      "outputs": [],
      "stateMutability": "nonpayable",
      "type": "function"
    },
    {
      "inputs": [
        {
          "internalType": "bool",
          "name": "_newMode",
          "type": "bool"
        }
      ],
      "name": "updateStagingMode",
      "outputs": [],
      "stateMutability": "nonpayable",
      "type": "function"
    },
    {
      "inputs": [
        {
          "internalType": "bytes32",
          "name": "",
          "type": "bytes32"
        }
      ],
      "name": "usedVCProofs",
      "outputs": [
        {
          "internalType": "bool",
          "name": "",
          "type": "bool"
        }
      ],
      "stateMutability": "view",
      "type": "function"
    },
    {
      "inputs": [
        {
          "internalType": "uint256",
          "name": "",
          "type": "uint256"
        }
      ],
      "name": "verifiedNGOs",
      "outputs": [
        {
          "internalType": "address",
          "name": "",
          "type": "address"
        }
      ],
      "stateMutability": "view",
      "type": "function"
    },
    {
      "inputs": [
        {
          "internalType": "bytes",
          "name": "",
          "type": "bytes"
        },
        {
          "internalType": "bytes",
          "name": "",
          "type": "bytes"
        }
      ],
      "name": "verifySelfProof",
      "outputs": [],
      "stateMutability": "nonpayable",
      "type": "function"
    },
    {
      "inputs": [
        {
          "internalType": "string",
          "name": "",
          "type": "string"
        }
      ],
      "name": "walletByDID",
      "outputs": [
        {
          "internalType": "address",
          "name": "",
          "type": "address"
        }
      ],
      "stateMutability": "view",
      "type": "function"
    }
  ],
  "bytecode": "0x60a060405234801561000f575f5ffd5b50604051614e84380380614e8483398181016040528101906100319190610367565b60015f819055505f73ffffffffffffffffffffffffffffffffffffffff168573ffffffffffffffffffffffffffffffffffffffff16036100a6576040517f08c379a000000000000000000000000000000000000000000000000000000000815260040161009d90610438565b60405180910390fd5b5f73ffffffffffffffffffffffffffffffffffffffff168473ffffffffffffffffffffffffffffffffffffffff1603610114576040517f08c379a000000000000000000000000000000000000000000000000000000000815260040161010b906104a0565b60405180910390fd5b5f73ffffffffffffffffffffffffffffffffffffffff168373ffffffffffffffffffffffffffffffffffffffff1603610182576040517f08c379a000000000000000000000000000000000000000000000000000000000815260040161017990610508565b60405180910390fd5b8460055f6101000a81548173ffffffffffffffffffffffffffffffffffffffff021916908373ffffffffffffffffffffffffffffffffffffffff1602179055508373ffffffffffffffffffffffffffffffffffffffff1660808173ffffffffffffffffffffffffffffffffffffffff16815250508260075f6101000a81548173ffffffffffffffffffffffffffffffffffffffff021916908373ffffffffffffffffffffffffffffffffffffffff1602179055508160068190555080600560146101000a81548160ff02191690831515021790555033600a5f6101000a81548173ffffffffffffffffffffffffffffffffffffffff021916908373ffffffffffffffffffffffffffffffffffffffff1602179055505050505050610526565b5f5ffd5b5f73ffffffffffffffffffffffffffffffffffffffff82169050919050565b5f6102ce826102a5565b9050919050565b6102de816102c4565b81146102e8575f5ffd5b50565b5f815190506102f9816102d5565b92915050565b5f819050919050565b610311816102ff565b811461031b575f5ffd5b50565b5f8151905061032c81610308565b92915050565b5f8115159050919050565b61034681610332565b8114610350575f5ffd5b50565b5f815190506103618161033d565b92915050565b5f5f5f5f5f60a086880312156103805761037f6102a1565b5b5f61038d888289016102eb565b955050602061039e888289016102eb565b94505060406103af888289016102eb565b93505060606103c08882890161031e565b92505060806103d188828901610353565b9150509295509295909350565b5f82825260208201905092915050565b7f496e76616c6964207665726966696572000000000000000000000000000000005f82015250565b5f6104226010836103de565b915061042d826103ee565b602082019050919050565b5f6020820190508181035f83015261044f81610416565b9050919050565b7f496e76616c6964206355534400000000000000000000000000000000000000005f82015250565b5f61048a600c836103de565b915061049582610456565b602082019050919050565b5f6020820190508181035f8301526104b78161047e565b9050919050565b7f496e76616c69642066656520636f6c6c6563746f7200000000000000000000005f82015250565b5f6104f26015836103de565b91506104fd826104be565b602082019050919050565b5f6020820190508181035f83015261051f816104e6565b9050919050565b60805161493f6105455f395f8181610c4e01526118c9015261493f5ff3fe608060405234801561000f575f5ffd5b50600436106101d7575f3560e01c8063ada3fe9111610102578063d161802b116100a0578063d7173f951161006f578063d7173f9514610561578063e35c68ca1461059b578063f63f150a146105b9578063f851a440146105e9576101d7565b8063d161802b146104ef578063d2c35ce81461050b578063d3afe24614610527578063d5ad065e14610543576101d7565b8063b9209e33116100dc578063b9209e3314610467578063c415b95c14610497578063c9523732146104b5578063cbcd7e26146104d1576101d7565b8063ada3fe91146103eb578063af582c6b1461041b578063b2ad323b14610437576101d7565b806343ff57901161017a57806375829def1161014957806375829def1461036757806386940b621461038357806390b8baca146103b3578063a039f0f4146103cf576101d7565b806343ff5790146102cd5780634ce945fd146102e95780635bf323ac146103075780636d85ce2414610337576101d7565b806314c44e09116101b657806314c44e09146102435780631fccf672146102615780632d7dbc201461027f5780633adcb67a146102af576101d7565b80629299e3146101db5780630e206b18146101f7578063121bea5814610213575b5f5ffd5b6101f560048036038101906101f09190613063565b610607565b005b610211600480360381019061020c9190613104565b6107be565b005b61022d6004803603810190610228919061315e565b610982565b60405161023a9190613357565b60405180910390f35b61024b610c46565b6040516102589190613386565b60405180910390f35b610269610c4c565b60405161027691906133fa565b60405180910390f35b6102996004803603810190610294919061343d565b610c70565b6040516102a69190613477565b60405180910390f35b6102b7610c8d565b6040516102c49190613477565b60405180910390f35b6102e760048036038101906102e29190613104565b610ca0565b005b6102f1611116565b6040516102fe9190613538565b60405180910390f35b610321600480360381019061031c9190613063565b611369565b60405161032e9190613567565b60405180910390f35b610351600480360381019061034c91906135aa565b6113b1565b60405161035e9190613567565b60405180910390f35b610381600480360381019061037c919061315e565b6113ec565b005b61039d6004803603810190610398919061315e565b61152c565b6040516103aa9190613477565b60405180910390f35b6103cd60048036038101906103c8919061369d565b611577565b005b6103e960048036038101906103e491906137aa565b611cb0565b005b6104056004803603810190610400919061315e565b611e63565b6040516104129190613386565b60405180910390f35b610435600480360381019061043091906135aa565b611e78565b005b610451600480360381019061044c91906137fa565b611f51565b60405161045e9190613477565b60405180910390f35b610481600480360381019061047c919061315e565b611f7b565b60405161048e9190613477565b60405180910390f35b61049f611fe2565b6040516104ac9190613567565b60405180910390f35b6104cf60048036038101906104ca9190613862565b612007565b005b6104d9612100565b6040516104e69190613386565b60405180910390f35b6105096004803603810190610504919061388d565b612105565b005b6105256004803603810190610520919061315e565b612109565b005b610541600480360381019061053c919061315e565b6122a8565b005b61054b612447565b6040516105589190613386565b60405180910390f35b61057b6004803603810190610576919061315e565b61255c565b6040516105929b9a99989796959493929190613969565b60405180910390f35b6105a361277b565b6040516105b09190613567565b60405180910390f35b6105d360048036038101906105ce9190613063565b6127a0565b6040516105e09190613538565b60405180910390f35b6105f1612abf565b6040516105fe9190613567565b60405180910390f35b60015f3373ffffffffffffffffffffffffffffffffffffffff1673ffffffffffffffffffffffffffffffffffffffff1681526020019081526020015f206008015f9054906101000a900460ff16610693576040517f08c379a000000000000000000000000000000000000000000000000000000000815260040161068a90613a71565b60405180910390fd5b61069c3361152c565b156106dc576040517f08c379a00000000000000000000000000000000000000000000000000000000081526004016106d390613ad9565b60405180910390fd5b5f81511161071f576040517f08c379a000000000000000000000000000000000000000000000000000000000815260040161071690613b41565b60405180910390fd5b8060015f3373ffffffffffffffffffffffffffffffffffffffff1673ffffffffffffffffffffffffffffffffffffffff1681526020019081526020015f20600501908161076c9190613d53565b503373ffffffffffffffffffffffffffffffffffffffff167fce9c7090b150017d47ccdac62dbca452828cb7b68b3d56804a133ab7602e3287826040516107b39190613e22565b60405180910390a250565b600a5f9054906101000a900473ffffffffffffffffffffffffffffffffffffffff1673ffffffffffffffffffffffffffffffffffffffff163373ffffffffffffffffffffffffffffffffffffffff161461084d576040517f08c379a000000000000000000000000000000000000000000000000000000000815260040161084490613e8c565b60405180910390fd5b60015f8373ffffffffffffffffffffffffffffffffffffffff1673ffffffffffffffffffffffffffffffffffffffff1681526020019081526020015f206008015f9054906101000a900460ff166108d9576040517f08c379a00000000000000000000000000000000000000000000000000000000081526004016108d090613ef4565b60405180910390fd5b5f60015f8473ffffffffffffffffffffffffffffffffffffffff1673ffffffffffffffffffffffffffffffffffffffff1681526020019081526020015f206008015f6101000a81548160ff0219169083151502179055508173ffffffffffffffffffffffffffffffffffffffff167f48183cc48b42503809f79c2c7dfe45895beb498381a9b31f1a3a60fddf3850f6826040516109769190613e22565b60405180910390a25050565b61098a612ea9565b60015f8373ffffffffffffffffffffffffffffffffffffffff1673ffffffffffffffffffffffffffffffffffffffff1681526020019081526020015f20604051806101600160405290815f820180546109e290613b8c565b80601f0160208091040260200160405190810160405280929190818152602001828054610a0e90613b8c565b8015610a595780601f10610a3057610100808354040283529160200191610a59565b820191905f5260205f20905b815481529060010190602001808311610a3c57829003601f168201915b5050505050815260200160018201548152602001600282015f9054906101000a900460ff1660ff1660ff168152602001600382018054610a9890613b8c565b80601f0160208091040260200160405190810160405280929190818152602001828054610ac490613b8c565b8015610b0f5780601f10610ae657610100808354040283529160200191610b0f565b820191905f5260205f20905b815481529060010190602001808311610af257829003601f168201915b50505050508152602001600482015f9054906101000a900473ffffffffffffffffffffffffffffffffffffffff1673ffffffffffffffffffffffffffffffffffffffff1673ffffffffffffffffffffffffffffffffffffffff168152602001600582018054610b7d90613b8c565b80601f0160208091040260200160405190810160405280929190818152602001828054610ba990613b8c565b8015610bf45780601f10610bcb57610100808354040283529160200191610bf4565b820191905f5260205f20905b815481529060010190602001808311610bd757829003601f168201915b505050505081526020016006820154815260200160078201548152602001600882015f9054906101000a900460ff1615151515815260200160098201548152602001600a820154815250509050919050565b60065481565b7f000000000000000000000000000000000000000000000000000000000000000081565b6003602052805f5260405f205f915054906101000a900460ff1681565b600560149054906101000a900460ff1681565b60015f8373ffffffffffffffffffffffffffffffffffffffff1673ffffffffffffffffffffffffffffffffffffffff1681526020019081526020015f206008015f9054906101000a900460ff16610d2c576040517f08c379a0000000000000000000000000000000000000000000000000000000008152600401610d2390613ef4565b60405180910390fd5b8173ffffffffffffffffffffffffffffffffffffffff163373ffffffffffffffffffffffffffffffffffffffff1603610d9a576040517f08c379a0000000000000000000000000000000000000000000000000000000008152600401610d9190613f5c565b60405180910390fd5b60095f8373ffffffffffffffffffffffffffffffffffffffff1673ffffffffffffffffffffffffffffffffffffffff1681526020019081526020015f205f3373ffffffffffffffffffffffffffffffffffffffff1673ffffffffffffffffffffffffffffffffffffffff1681526020019081526020015f205f9054906101000a900460ff1615610e5f576040517f08c379a0000000000000000000000000000000000000000000000000000000008152600401610e5690613fc4565b60405180910390fd5b600a815111610ea3576040517f08c379a0000000000000000000000000000000000000000000000000000000008152600401610e9a9061402c565b60405180910390fd5b600160095f8473ffffffffffffffffffffffffffffffffffffffff1673ffffffffffffffffffffffffffffffffffffffff1681526020019081526020015f205f3373ffffffffffffffffffffffffffffffffffffffff1673ffffffffffffffffffffffffffffffffffffffff1681526020019081526020015f205f6101000a81548160ff02191690831515021790555060085f8373ffffffffffffffffffffffffffffffffffffffff1673ffffffffffffffffffffffffffffffffffffffff1681526020019081526020015f205f815480929190610f8090614077565b91905055503373ffffffffffffffffffffffffffffffffffffffff168273ffffffffffffffffffffffffffffffffffffffff167fd86f61a7d945a4cc061fb54553c90f5e2e2d6bfa54c94872581e5d3579377ac28360085f8773ffffffffffffffffffffffffffffffffffffffff1673ffffffffffffffffffffffffffffffffffffffff1681526020019081526020015f20546040516110219291906140be565b60405180910390a3600560085f8473ffffffffffffffffffffffffffffffffffffffff1673ffffffffffffffffffffffffffffffffffffffff1681526020019081526020015f205410611112575f60015f8473ffffffffffffffffffffffffffffffffffffffff1673ffffffffffffffffffffffffffffffffffffffff1681526020019081526020015f206008015f6101000a81548160ff0219169083151502179055508173ffffffffffffffffffffffffffffffffffffffff167f48183cc48b42503809f79c2c7dfe45895beb498381a9b31f1a3a60fddf3850f66040516111099061415c565b60405180910390a25b5050565b60605f5f90505f5f90505b6004805490508110156111ee575f600482815481106111435761114261417a565b5b905f5260205f20015f9054906101000a900473ffffffffffffffffffffffffffffffffffffffff16905060015f8273ffffffffffffffffffffffffffffffffffffffff1673ffffffffffffffffffffffffffffffffffffffff1681526020019081526020015f206008015f9054906101000a900460ff1680156111cc57506111ca8161152c565b155b156111e05782806111dc90614077565b9350505b508080600101915050611121565b505f8167ffffffffffffffff81111561120a57611209612f3f565b5b6040519080825280602002602001820160405280156112385781602001602082028036833780820191505090505b5090505f5f90505f5f90505b60048054905081101561135f575f600482815481106112665761126561417a565b5b905f5260205f20015f9054906101000a900473ffffffffffffffffffffffffffffffffffffffff16905060015f8273ffffffffffffffffffffffffffffffffffffffff1673ffffffffffffffffffffffffffffffffffffffff1681526020019081526020015f206008015f9054906101000a900460ff1680156112ef57506112ed8161152c565b155b1561135157808484815181106113085761130761417a565b5b602002602001019073ffffffffffffffffffffffffffffffffffffffff16908173ffffffffffffffffffffffffffffffffffffffff1681525050828061134d90614077565b9350505b508080600101915050611244565b5081935050505090565b6002818051602081018201805184825260208301602085012081835280955050505050505f915054906101000a900473ffffffffffffffffffffffffffffffffffffffff1681565b600481815481106113c0575f80fd5b905f5260205f20015f915054906101000a900473ffffffffffffffffffffffffffffffffffffffff1681565b600a5f9054906101000a900473ffffffffffffffffffffffffffffffffffffffff1673ffffffffffffffffffffffffffffffffffffffff163373ffffffffffffffffffffffffffffffffffffffff161461147b576040517f08c379a000000000000000000000000000000000000000000000000000000000815260040161147290613e8c565b60405180910390fd5b5f73ffffffffffffffffffffffffffffffffffffffff168173ffffffffffffffffffffffffffffffffffffffff16036114e9576040517f08c379a00000000000000000000000000000000000000000000000000000000081526004016114e0906141f1565b60405180910390fd5b80600a5f6101000a81548173ffffffffffffffffffffffffffffffffffffffff021916908373ffffffffffffffffffffffffffffffffffffffff16021790555050565b5f60015f8373ffffffffffffffffffffffffffffffffffffffff1673ffffffffffffffffffffffffffffffffffffffff1681526020019081526020015f206007015442119050919050565b61157f612ae4565b60015f3373ffffffffffffffffffffffffffffffffffffffff1673ffffffffffffffffffffffffffffffffffffffff1681526020019081526020015f206008015f9054906101000a900460ff161561160c576040517f08c379a000000000000000000000000000000000000000000000000000000000815260040161160390614259565b60405180910390fd5b5f73ffffffffffffffffffffffffffffffffffffffff1660028860405161163391906142b1565b90815260200160405180910390205f9054906101000a900473ffffffffffffffffffffffffffffffffffffffff1673ffffffffffffffffffffffffffffffffffffffff16146116b7576040517f08c379a00000000000000000000000000000000000000000000000000000000081526004016116ae90614311565b60405180910390fd5b60035f8781526020019081526020015f205f9054906101000a900460ff1615611715576040517f08c379a000000000000000000000000000000000000000000000000000000000815260040161170c90614379565b60405180910390fd5b60128460ff16101561175c576040517f08c379a0000000000000000000000000000000000000000000000000000000008152600401611753906143e1565b60405180910390fd5b42811161179e576040517f08c379a000000000000000000000000000000000000000000000000000000000815260040161179590613ad9565b60405180910390fd5b5f8751116117e1576040517f08c379a00000000000000000000000000000000000000000000000000000000081526004016117d890614449565b60405180910390fd5b5f825111611824576040517f08c379a000000000000000000000000000000000000000000000000000000000815260040161181b906144b1565b60405180910390fd5b600283511015611869576040517f08c379a000000000000000000000000000000000000000000000000000000000815260040161186090614519565b60405180910390fd5b600560149054906101000a900460ff166118c7576118878686612b28565b6118c6576040517f08c379a00000000000000000000000000000000000000000000000000000000081526004016118bd90614581565b60405180910390fd5b5b7f000000000000000000000000000000000000000000000000000000000000000073ffffffffffffffffffffffffffffffffffffffff166323b872dd3360075f9054906101000a900473ffffffffffffffffffffffffffffffffffffffff166006546040518463ffffffff1660e01b81526004016119479392919061459f565b6020604051808303815f875af1158015611963573d5f5f3e3d5ffd5b505050506040513d601f19601f8201168201806040525081019061198791906145e8565b6119c6576040517f08c379a00000000000000000000000000000000000000000000000000000000081526004016119bd9061465d565b60405180910390fd5b6040518061016001604052808881526020018781526020018560ff1681526020018481526020013373ffffffffffffffffffffffffffffffffffffffff1681526020018381526020014281526020018281526020016001151581526020015f81526020015f81525060015f3373ffffffffffffffffffffffffffffffffffffffff1673ffffffffffffffffffffffffffffffffffffffff1681526020019081526020015f205f820151815f019081611a7e9190613d53565b50602082015181600101556040820151816002015f6101000a81548160ff021916908360ff1602179055506060820151816003019081611abe9190613d53565b506080820151816004015f6101000a81548173ffffffffffffffffffffffffffffffffffffffff021916908373ffffffffffffffffffffffffffffffffffffffff16021790555060a0820151816005019081611b1a9190613d53565b5060c0820151816006015560e08201518160070155610100820151816008015f6101000a81548160ff021916908315150217905550610120820151816009015561014082015181600a015590505033600288604051611b7991906142b1565b90815260200160405180910390205f6101000a81548173ffffffffffffffffffffffffffffffffffffffff021916908373ffffffffffffffffffffffffffffffffffffffff160217905550600160035f8881526020019081526020015f205f6101000a81548160ff021916908315150217905550600433908060018154018082558091505060019003905f5260205f20015f9091909190916101000a81548173ffffffffffffffffffffffffffffffffffffffff021916908373ffffffffffffffffffffffffffffffffffffffff1602179055503373ffffffffffffffffffffffffffffffffffffffff167fe73f384953b41068101adc731fed23857a955450ec8c0e2377136dd9a6a672e7888542604051611c979392919061467b565b60405180910390a2611ca7612ba5565b50505050505050565b60015f8473ffffffffffffffffffffffffffffffffffffffff1673ffffffffffffffffffffffffffffffffffffffff1681526020019081526020015f206008015f9054906101000a900460ff16611d3c576040517f08c379a0000000000000000000000000000000000000000000000000000000008152600401611d3390613ef4565b60405180910390fd5b611d458361152c565b15611d85576040517f08c379a0000000000000000000000000000000000000000000000000000000008152600401611d7c90614708565b60405180910390fd5b5f60015f8573ffffffffffffffffffffffffffffffffffffffff1673ffffffffffffffffffffffffffffffffffffffff1681526020019081526020015f20905081816009015f828254611dd89190614726565b9250508190555080600a015f815480929190611df390614077565b91905055508273ffffffffffffffffffffffffffffffffffffffff168473ffffffffffffffffffffffffffffffffffffffff167f5a44ca936e10ed876544e034925bc6e88a0fa0acf71de25b047107145f4ef86484604051611e559190613386565b60405180910390a350505050565b6008602052805f5260405f205f915090505481565b600a5f9054906101000a900473ffffffffffffffffffffffffffffffffffffffff1673ffffffffffffffffffffffffffffffffffffffff163373ffffffffffffffffffffffffffffffffffffffff1614611f07576040517f08c379a0000000000000000000000000000000000000000000000000000000008152600401611efe90613e8c565b60405180910390fd5b5f6006549050816006819055507f50b218c5a101ad05d53ab0a964d01da639ee79525ae4b7802ed714249740a8d58183604051611f45929190614759565b60405180910390a15050565b6009602052815f5260405f20602052805f5260405f205f915091509054906101000a900460ff1681565b5f60015f8373ffffffffffffffffffffffffffffffffffffffff1673ffffffffffffffffffffffffffffffffffffffff1681526020019081526020015f206008015f9054906101000a900460ff168015611fdb5750611fd98261152c565b155b9050919050565b60075f9054906101000a900473ffffffffffffffffffffffffffffffffffffffff1681565b600a5f9054906101000a900473ffffffffffffffffffffffffffffffffffffffff1673ffffffffffffffffffffffffffffffffffffffff163373ffffffffffffffffffffffffffffffffffffffff1614612096576040517f08c379a000000000000000000000000000000000000000000000000000000000815260040161208d90613e8c565b60405180910390fd5b5f600560149054906101000a900460ff16905081600560146101000a81548160ff0219169083151502179055507f5e7678a83f02c743be96b812dad1a42fc5817cd8bdfff9521d7191729645cea581836040516120f4929190614780565b60405180910390a15050565b600581565b5050565b600a5f9054906101000a900473ffffffffffffffffffffffffffffffffffffffff1673ffffffffffffffffffffffffffffffffffffffff163373ffffffffffffffffffffffffffffffffffffffff1614612198576040517f08c379a000000000000000000000000000000000000000000000000000000000815260040161218f90613e8c565b60405180910390fd5b5f73ffffffffffffffffffffffffffffffffffffffff168173ffffffffffffffffffffffffffffffffffffffff1603612206576040517f08c379a00000000000000000000000000000000000000000000000000000000081526004016121fd906141f1565b60405180910390fd5b5f60075f9054906101000a900473ffffffffffffffffffffffffffffffffffffffff1690508160075f6101000a81548173ffffffffffffffffffffffffffffffffffffffff021916908373ffffffffffffffffffffffffffffffffffffffff1602179055507f5d16ad41baeb009cd23eb8f6c7cde5c2e0cd5acf4a33926ab488875c37c37f38818360405161229c9291906147a7565b60405180910390a15050565b600a5f9054906101000a900473ffffffffffffffffffffffffffffffffffffffff1673ffffffffffffffffffffffffffffffffffffffff163373ffffffffffffffffffffffffffffffffffffffff1614612337576040517f08c379a000000000000000000000000000000000000000000000000000000000815260040161232e90613e8c565b60405180910390fd5b5f73ffffffffffffffffffffffffffffffffffffffff168173ffffffffffffffffffffffffffffffffffffffff16036123a5576040517f08c379a000000000000000000000000000000000000000000000000000000000815260040161239c906141f1565b60405180910390fd5b5f60055f9054906101000a900473ffffffffffffffffffffffffffffffffffffffff1690508160055f6101000a81548173ffffffffffffffffffffffffffffffffffffffff021916908373ffffffffffffffffffffffffffffffffffffffff1602179055507f5829b6b70a178d1f25f09be4654c48dd63dc1ba0fe6503db9fd55c59dfcaf2d2818360405161243b9291906147a7565b60405180910390a15050565b5f5f5f90505f5f90505b6004805490508110156125545760015f600483815481106124755761247461417a565b5b905f5260205f20015f9054906101000a900473ffffffffffffffffffffffffffffffffffffffff1673ffffffffffffffffffffffffffffffffffffffff1673ffffffffffffffffffffffffffffffffffffffff1681526020019081526020015f206008015f9054906101000a900460ff1680156125335750612531600482815481106125045761250361417a565b5b905f5260205f20015f9054906101000a900473ffffffffffffffffffffffffffffffffffffffff1661152c565b155b1561254757818061254390614077565b9250505b8080600101915050612451565b508091505090565b6001602052805f5260405f205f91509050805f01805461257b90613b8c565b80601f01602080910402602001604051908101604052809291908181526020018280546125a790613b8c565b80156125f25780601f106125c9576101008083540402835291602001916125f2565b820191905f5260205f20905b8154815290600101906020018083116125d557829003601f168201915b505050505090806001015490806002015f9054906101000a900460ff169080600301805461261f90613b8c565b80601f016020809104026020016040519081016040528092919081815260200182805461264b90613b8c565b80156126965780601f1061266d57610100808354040283529160200191612696565b820191905f5260205f20905b81548152906001019060200180831161267957829003601f168201915b505050505090806004015f9054906101000a900473ffffffffffffffffffffffffffffffffffffffff16908060050180546126d090613b8c565b80601f01602080910402602001604051908101604052809291908181526020018280546126fc90613b8c565b80156127475780601f1061271e57610100808354040283529160200191612747565b820191905f5260205f20905b81548152906001019060200180831161272a57829003601f168201915b505050505090806006015490806007015490806008015f9054906101000a900460ff169080600901549080600a015490508b565b60055f9054906101000a900473ffffffffffffffffffffffffffffffffffffffff1681565b60605f5f90505f838051906020012090505f5f90505b6004805490508110156128e2575f600482815481106127d8576127d761417a565b5b905f5260205f20015f9054906101000a900473ffffffffffffffffffffffffffffffffffffffff16905060015f8273ffffffffffffffffffffffffffffffffffffffff1673ffffffffffffffffffffffffffffffffffffffff1681526020019081526020015f206008015f9054906101000a900460ff168015612861575061285f8161152c565b155b80156128c057508260015f8373ffffffffffffffffffffffffffffffffffffffff1673ffffffffffffffffffffffffffffffffffffffff1681526020019081526020015f206003016040516128b6919061486a565b6040518091039020145b156128d45783806128d090614077565b9450505b5080806001019150506127b6565b505f8267ffffffffffffffff8111156128fe576128fd612f3f565b5b60405190808252806020026020018201604052801561292c5781602001602082028036833780820191505090505b5090505f5f90505f5f90505b600480549050811015612ab2575f6004828154811061295a5761295961417a565b5b905f5260205f20015f9054906101000a900473ffffffffffffffffffffffffffffffffffffffff16905060015f8273ffffffffffffffffffffffffffffffffffffffff1673ffffffffffffffffffffffffffffffffffffffff1681526020019081526020015f206008015f9054906101000a900460ff1680156129e357506129e18161152c565b155b8015612a4257508460015f8373ffffffffffffffffffffffffffffffffffffffff1673ffffffffffffffffffffffffffffffffffffffff1681526020019081526020015f20600301604051612a38919061486a565b6040518091039020145b15612aa45780848481518110612a5b57612a5a61417a565b5b602002602001019073ffffffffffffffffffffffffffffffffffffffff16908173ffffffffffffffffffffffffffffffffffffffff16815250508280612aa090614077565b9350505b508080600101915050612938565b5081945050505050919050565b600a5f9054906101000a900473ffffffffffffffffffffffffffffffffffffffff1681565b60025f5403612b1f576040517f3ee5aeb500000000000000000000000000000000000000000000000000000000815260040160405180910390fd5b60025f81905550565b5f5f612b3384612bae565b90505f612b498483612be190919063ffffffff16565b905060055f9054906101000a900473ffffffffffffffffffffffffffffffffffffffff1673ffffffffffffffffffffffffffffffffffffffff168173ffffffffffffffffffffffffffffffffffffffff16149250505092915050565b60015f81905550565b5f7f19457468657265756d205369676e6564204d6573736167653a0a3332000000005f5281601c52603c5f209050919050565b5f5f5f5f612bef8686612c0b565b925092509250612bff8282612c60565b82935050505092915050565b5f5f5f6041845103612c4b575f5f5f602087015192506040870151915060608701515f1a9050612c3d88828585612dc2565b955095509550505050612c59565b5f600285515f1b9250925092505b9250925092565b5f6003811115612c7357612c72614880565b5b826003811115612c8657612c85614880565b5b0315612dbe5760016003811115612ca057612c9f614880565b5b826003811115612cb357612cb2614880565b5b03612cea576040517ff645eedf00000000000000000000000000000000000000000000000000000000815260040160405180910390fd5b60026003811115612cfe57612cfd614880565b5b826003811115612d1157612d10614880565b5b03612d5557805f1c6040517ffce698f7000000000000000000000000000000000000000000000000000000008152600401612d4c9190613386565b60405180910390fd5b600380811115612d6857612d67614880565b5b826003811115612d7b57612d7a614880565b5b03612dbd57806040517fd78bce0c000000000000000000000000000000000000000000000000000000008152600401612db491906148ad565b60405180910390fd5b5b5050565b5f5f5f7f7fffffffffffffffffffffffffffffff5d576e7357a4501ddfe92f46681b20a0845f1c1115612dfe575f600385925092509250612e9f565b5f6001888888886040515f8152602001604052604051612e2194939291906148c6565b6020604051602081039080840390855afa158015612e41573d5f5f3e3d5ffd5b5050506020604051035190505f73ffffffffffffffffffffffffffffffffffffffff168173ffffffffffffffffffffffffffffffffffffffff1603612e92575f60015f5f1b93509350935050612e9f565b805f5f5f1b935093509350505b9450945094915050565b604051806101600160405280606081526020015f81526020015f60ff168152602001606081526020015f73ffffffffffffffffffffffffffffffffffffffff168152602001606081526020015f81526020015f81526020015f151581526020015f81526020015f81525090565b5f604051905090565b5f5ffd5b5f5ffd5b5f5ffd5b5f5ffd5b5f601f19601f8301169050919050565b7f4e487b71000000000000000000000000000000000000000000000000000000005f52604160045260245ffd5b612f7582612f2f565b810181811067ffffffffffffffff82111715612f9457612f93612f3f565b5b80604052505050565b5f612fa6612f16565b9050612fb28282612f6c565b919050565b5f67ffffffffffffffff821115612fd157612fd0612f3f565b5b612fda82612f2f565b9050602081019050919050565b828183375f83830152505050565b5f61300761300284612fb7565b612f9d565b90508281526020810184848401111561302357613022612f2b565b5b61302e848285612fe7565b509392505050565b5f82601f83011261304a57613049612f27565b5b813561305a848260208601612ff5565b91505092915050565b5f6020828403121561307857613077612f1f565b5b5f82013567ffffffffffffffff81111561309557613094612f23565b5b6130a184828501613036565b91505092915050565b5f73ffffffffffffffffffffffffffffffffffffffff82169050919050565b5f6130d3826130aa565b9050919050565b6130e3816130c9565b81146130ed575f5ffd5b50565b5f813590506130fe816130da565b92915050565b5f5f6040838503121561311a57613119612f1f565b5b5f613127858286016130f0565b925050602083013567ffffffffffffffff81111561314857613147612f23565b5b61315485828601613036565b9150509250929050565b5f6020828403121561317357613172612f1f565b5b5f613180848285016130f0565b91505092915050565b5f81519050919050565b5f82825260208201905092915050565b8281835e5f83830152505050565b5f6131bb82613189565b6131c58185613193565b93506131d58185602086016131a3565b6131de81612f2f565b840191505092915050565b5f819050919050565b6131fb816131e9565b82525050565b5f60ff82169050919050565b61321681613201565b82525050565b613225816130c9565b82525050565b5f819050919050565b61323d8161322b565b82525050565b5f8115159050919050565b61325781613243565b82525050565b5f61016083015f8301518482035f86015261327882826131b1565b915050602083015161328d60208601826131f2565b5060408301516132a0604086018261320d565b50606083015184820360608601526132b882826131b1565b91505060808301516132cd608086018261321c565b5060a083015184820360a08601526132e582826131b1565b91505060c08301516132fa60c0860182613234565b5060e083015161330d60e0860182613234565b5061010083015161332261010086018261324e565b50610120830151613337610120860182613234565b5061014083015161334c610140860182613234565b508091505092915050565b5f6020820190508181035f83015261336f818461325d565b905092915050565b6133808161322b565b82525050565b5f6020820190506133995f830184613377565b92915050565b5f819050919050565b5f6133c26133bd6133b8846130aa565b61339f565b6130aa565b9050919050565b5f6133d3826133a8565b9050919050565b5f6133e4826133c9565b9050919050565b6133f4816133da565b82525050565b5f60208201905061340d5f8301846133eb565b92915050565b61341c816131e9565b8114613426575f5ffd5b50565b5f8135905061343781613413565b92915050565b5f6020828403121561345257613451612f1f565b5b5f61345f84828501613429565b91505092915050565b61347181613243565b82525050565b5f60208201905061348a5f830184613468565b92915050565b5f81519050919050565b5f82825260208201905092915050565b5f819050602082019050919050565b5f6134c4838361321c565b60208301905092915050565b5f602082019050919050565b5f6134e682613490565b6134f0818561349a565b93506134fb836134aa565b805f5b8381101561352b57815161351288826134b9565b975061351d836134d0565b9250506001810190506134fe565b5085935050505092915050565b5f6020820190508181035f83015261355081846134dc565b905092915050565b613561816130c9565b82525050565b5f60208201905061357a5f830184613558565b92915050565b6135898161322b565b8114613593575f5ffd5b50565b5f813590506135a481613580565b92915050565b5f602082840312156135bf576135be612f1f565b5b5f6135cc84828501613596565b91505092915050565b5f67ffffffffffffffff8211156135ef576135ee612f3f565b5b6135f882612f2f565b9050602081019050919050565b5f613617613612846135d5565b612f9d565b90508281526020810184848401111561363357613632612f2b565b5b61363e848285612fe7565b509392505050565b5f82601f83011261365a57613659612f27565b5b813561366a848260208601613605565b91505092915050565b61367c81613201565b8114613686575f5ffd5b50565b5f8135905061369781613673565b92915050565b5f5f5f5f5f5f5f60e0888a0312156136b8576136b7612f1f565b5b5f88013567ffffffffffffffff8111156136d5576136d4612f23565b5b6136e18a828b01613036565b97505060206136f28a828b01613429565b965050604088013567ffffffffffffffff81111561371357613712612f23565b5b61371f8a828b01613646565b95505060606137308a828b01613689565b945050608088013567ffffffffffffffff81111561375157613750612f23565b5b61375d8a828b01613036565b93505060a088013567ffffffffffffffff81111561377e5761377d612f23565b5b61378a8a828b01613036565b92505060c061379b8a828b01613596565b91505092959891949750929550565b5f5f5f606084860312156137c1576137c0612f1f565b5b5f6137ce868287016130f0565b93505060206137df868287016130f0565b92505060406137f086828701613596565b9150509250925092565b5f5f604083850312156138105761380f612f1f565b5b5f61381d858286016130f0565b925050602061382e858286016130f0565b9150509250929050565b61384181613243565b811461384b575f5ffd5b50565b5f8135905061385c81613838565b92915050565b5f6020828403121561387757613876612f1f565b5b5f6138848482850161384e565b91505092915050565b5f5f604083850312156138a3576138a2612f1f565b5b5f83013567ffffffffffffffff8111156138c0576138bf612f23565b5b6138cc85828601613646565b925050602083013567ffffffffffffffff8111156138ed576138ec612f23565b5b6138f985828601613646565b9150509250929050565b5f82825260208201905092915050565b5f61391d82613189565b6139278185613903565b93506139378185602086016131a3565b61394081612f2f565b840191505092915050565b613954816131e9565b82525050565b61396381613201565b82525050565b5f610160820190508181035f830152613982818e613913565b9050613991602083018d61394b565b61399e604083018c61395a565b81810360608301526139b0818b613913565b90506139bf608083018a613558565b81810360a08301526139d18189613913565b90506139e060c0830188613377565b6139ed60e0830187613377565b6139fb610100830186613468565b613a09610120830185613377565b613a17610140830184613377565b9c9b505050505050505050505050565b7f4e6f74207665726966696564204e474f000000000000000000000000000000005f82015250565b5f613a5b601083613903565b9150613a6682613a27565b602082019050919050565b5f6020820190508181035f830152613a8881613a4f565b9050919050565b7f56432065787069726564000000000000000000000000000000000000000000005f82015250565b5f613ac3600a83613903565b9150613ace82613a8f565b602082019050919050565b5f6020820190508181035f830152613af081613ab7565b9050919050565b7f496e76616c6964204950465320686173680000000000000000000000000000005f82015250565b5f613b2b601183613903565b9150613b3682613af7565b602082019050919050565b5f6020820190508181035f830152613b5881613b1f565b9050919050565b7f4e487b71000000000000000000000000000000000000000000000000000000005f52602260045260245ffd5b5f6002820490506001821680613ba357607f821691505b602082108103613bb657613bb5613b5f565b5b50919050565b5f819050815f5260205f209050919050565b5f6020601f8301049050919050565b5f82821b905092915050565b5f60088302613c187fffffffffffffffffffffffffffffffffffffffffffffffffffffffffffffffff82613bdd565b613c228683613bdd565b95508019841693508086168417925050509392505050565b5f613c54613c4f613c4a8461322b565b61339f565b61322b565b9050919050565b5f819050919050565b613c6d83613c3a565b613c81613c7982613c5b565b848454613be9565b825550505050565b5f5f905090565b613c98613c89565b613ca3818484613c64565b505050565b5b81811015613cc657613cbb5f82613c90565b600181019050613ca9565b5050565b601f821115613d0b57613cdc81613bbc565b613ce584613bce565b81016020851015613cf4578190505b613d08613d0085613bce565b830182613ca8565b50505b505050565b5f82821c905092915050565b5f613d2b5f1984600802613d10565b1980831691505092915050565b5f613d438383613d1c565b9150826002028217905092915050565b613d5c82613189565b67ffffffffffffffff811115613d7557613d74612f3f565b5b613d7f8254613b8c565b613d8a828285613cca565b5f60209050601f831160018114613dbb575f8415613da9578287015190505b613db38582613d38565b865550613e1a565b601f198416613dc986613bbc565b5f5b82811015613df057848901518255600182019150602085019450602081019050613dcb565b86831015613e0d5784890151613e09601f891682613d1c565b8355505b6001600288020188555050505b505050505050565b5f6020820190508181035f830152613e3a8184613913565b905092915050565b7f4f6e6c792061646d696e000000000000000000000000000000000000000000005f82015250565b5f613e76600a83613903565b9150613e8182613e42565b602082019050919050565b5f6020820190508181035f830152613ea381613e6a565b9050919050565b7f4e474f206e6f74206163746976650000000000000000000000000000000000005f82015250565b5f613ede600e83613903565b9150613ee982613eaa565b602082019050919050565b5f6020820190508181035f830152613f0b81613ed2565b9050919050565b7f43616e6e6f74206368616c6c656e67652073656c6600000000000000000000005f82015250565b5f613f46601583613903565b9150613f5182613f12565b602082019050919050565b5f6020820190508181035f830152613f7381613f3a565b9050919050565b7f416c7265616479206368616c6c656e67656400000000000000000000000000005f82015250565b5f613fae601283613903565b9150613fb982613f7a565b602082019050919050565b5f6020820190508181035f830152613fdb81613fa2565b9050919050565b7f526561736f6e20746f6f2073686f7274000000000000000000000000000000005f82015250565b5f614016601083613903565b915061402182613fe2565b602082019050919050565b5f6020820190508181035f8301526140438161400a565b9050919050565b7f4e487b71000000000000000000000000000000000000000000000000000000005f52601160045260245ffd5b5f6140818261322b565b91507fffffffffffffffffffffffffffffffffffffffffffffffffffffffffffffffff82036140b3576140b261404a565b5b600182019050919050565b5f6040820190508181035f8301526140d68185613913565b90506140e56020830184613377565b9392505050565b7f436f6d6d756e697479206368616c6c656e6765207468726573686f6c642072655f8201527f6163686564000000000000000000000000000000000000000000000000000000602082015250565b5f614146602583613903565b9150614151826140ec565b604082019050919050565b5f6020820190508181035f8301526141738161413a565b9050919050565b7f4e487b71000000000000000000000000000000000000000000000000000000005f52603260045260245ffd5b7f496e76616c6964206164647265737300000000000000000000000000000000005f82015250565b5f6141db600f83613903565b91506141e6826141a7565b602082019050919050565b5f6020820190508181035f830152614208816141cf565b9050919050565b7f416c7265616479207265676973746572656400000000000000000000000000005f82015250565b5f614243601283613903565b915061424e8261420f565b602082019050919050565b5f6020820190508181035f83015261427081614237565b9050919050565b5f81905092915050565b5f61428b82613189565b6142958185614277565b93506142a58185602086016131a3565b80840191505092915050565b5f6142bc8284614281565b915081905092915050565b7f44494420616c72656164792075736564000000000000000000000000000000005f82015250565b5f6142fb601083613903565b9150614306826142c7565b602082019050919050565b5f6020820190508181035f830152614328816142ef565b9050919050565b7f564320616c7265616479207573656400000000000000000000000000000000005f82015250565b5f614363600f83613903565b915061436e8261432f565b602082019050919050565b5f6020820190508181035f83015261439081614357565b9050919050565b7f466f756e646572206d7573742062652031382b000000000000000000000000005f82015250565b5f6143cb601383613903565b91506143d682614397565b602082019050919050565b5f6020820190508181035f8301526143f8816143bf565b9050919050565b7f496e76616c6964204449440000000000000000000000000000000000000000005f82015250565b5f614433600b83613903565b915061443e826143ff565b602082019050919050565b5f6020820190508181035f83015261446081614427565b9050919050565b7f496e76616c69642070726f66696c6500000000000000000000000000000000005f82015250565b5f61449b600f83613903565b91506144a682614467565b602082019050919050565b5f6020820190508181035f8301526144c88161448f565b9050919050565b7f496e76616c696420636f756e74727920636f64650000000000000000000000005f82015250565b5f614503601483613903565b915061450e826144cf565b602082019050919050565b5f6020820190508181035f830152614530816144f7565b9050919050565b7f496e76616c6964205643207369676e61747572650000000000000000000000005f82015250565b5f61456b601483613903565b915061457682614537565b602082019050919050565b5f6020820190508181035f8301526145988161455f565b9050919050565b5f6060820190506145b25f830186613558565b6145bf6020830185613558565b6145cc6040830184613377565b949350505050565b5f815190506145e281613838565b92915050565b5f602082840312156145fd576145fc612f1f565b5b5f61460a848285016145d4565b91505092915050565b7f526567697374726174696f6e20666565207061796d656e74206661696c6564005f82015250565b5f614647601f83613903565b915061465282614613565b602082019050919050565b5f6020820190508181035f8301526146748161463b565b9050919050565b5f6060820190508181035f8301526146938186613913565b905081810360208301526146a78185613913565b90506146b66040830184613377565b949350505050565b7f4e474f20564320657870697265640000000000000000000000000000000000005f82015250565b5f6146f2600e83613903565b91506146fd826146be565b602082019050919050565b5f6020820190508181035f83015261471f816146e6565b9050919050565b5f6147308261322b565b915061473b8361322b565b92508282019050808211156147535761475261404a565b5b92915050565b5f60408201905061476c5f830185613377565b6147796020830184613377565b9392505050565b5f6040820190506147935f830185613468565b6147a06020830184613468565b9392505050565b5f6040820190506147ba5f830185613558565b6147c76020830184613558565b9392505050565b5f81905092915050565b5f819050815f5260205f209050919050565b5f81546147f681613b8c565b61480081866147ce565b9450600182165f811461481a576001811461482f57614861565b60ff1983168652811515820286019350614861565b614838856147d8565b5f5b838110156148595781548189015260018201915060208101905061483a565b838801955050505b50505092915050565b5f61487582846147ea565b915081905092915050565b7f4e487b71000000000000000000000000000000000000000000000000000000005f52602160045260245ffd5b5f6020820190506148c05f83018461394b565b92915050565b5f6080820190506148d95f83018761394b565b6148e6602083018661395a565b6148f3604083018561394b565b614900606083018461394b565b9594505050505056fea26469706673582212206d3022b0b7d101dc754249d8151545470de48752ae717257dd224bf530779eb264736f6c634300081c0033",
  "linkReferences": {},
  "deployedLinkReferences": {},
  "immutableReferences": {
    "6862": [
      {
        "length": 32,
        "start": 3150
      },
      {
        "length": 32,
        "start": 6345
      }
    ]
  },
  "inputSourceName": "project/contracts/NGORegistry.sol",
  "buildInfoId": "solc-0_8_28-3d9f73d95c747b0c1c0e4f62531dda5dd18f9c22"
}